:100800003C42A98585A9423C3C42A18585A1423C48
:100810003C42A58989A5423C0C1E3B7F6F3B1F1EB5
:1008200000167F7F7F7F5E5E7F0004077F7D6F7F86
:100830007E0E0021213F7F7F7F7F63003F7F647FAB
:100840003F7C543F0000003F3F00000000000000DC
:10085000E4F509F50A1208FEE4F508E50825099013
:10086000081893FD7C00AF081208BB0508E508C313
:10087000940840E7050AE50AD3940A40DBE4F50A48
:0E0880000509E509D3943840CFE4F50980CA94
:1008DD00EF1FAC0670011E4C600A7D027CEFDCFE42
:0408ED00DDFC80ECC2
:0108F10022E4
:0508FE00C2B6C2B522E4
:02088E00AD07B4
:10089000E4FB74807E00A803088006CEA2E713CE96
:1008A00013D8F8FFEDF582EF558224FF92B4D2B64B
:0A08B000C2B60BBB08DCD2B5C2B51E
:0108BA00221B
:1008BB00AA07AF0512088EAF027480A80708800242
:1008CB00C313D8FCF4F5807F017E001208DD758020
:0208DB00FF22FA
:030000000208F201
:0C08F200787FE4F6D8FD75810A020850FA
:00000001FF
