:1009950048656C6C6F2C4C5954264A4320363837C1
:1009A500004A54535A44204A43264C595420363859
:0209B500370009
:1009B700120A277BFF7A0979957D017F0112097257
:0F09C7007BFF7A0979A67D017F0212097280E415
:060A3B00C2A58F80D2A7C6
:080A41007F027EEFDEFEDFFC08
:010A4900228A
:0A0A5600C2A6120A3BC2A7020A4121
:1009D600CFCDCFCECCCE12083F7C007D0A12083F89
:0409E600ED2430FFCD
:0A09EA00D2A6120A3BC2A7020A417E
:100A1100AE07BE0104ED148006BE0209ED243F4479
:060A210080FF120A5622BC
:100A27007F38120A567F0C120A567F06120A567F23
:040A370001020A5658
:0A0A6000AC03120A11AF040209EA08
:060972008B228A23892478
:10097800120A11E4FDAB22AA23A9248D82758300F3
:0C098800120800FF60061209EA0D80E969
:010994002240
:0C093F007F0AEA24FFFDE434FFFC7E0088
:08094B008E1E8F1F8C208D21F0
:100953007F017E00E4FBEBC39521E5206480F874FE
:0E0963008098500AAC1EAD1F12082D0B80E8C4
:010971002263
:0409F4008A118B12C7
:1009F800120A11AA13EAD39400400D12093FAC1150
:080A0800AD121209D61A80EDAF
:010A100022C3
:10089400120A11C3EA64809480400B7F2B1209EA88
:1008A4008A0D8B0E800E7F2D1209EAC3E49BF50E90
:1008B400E49AF50DAA0CEAD39400400D12093FAC5A
:0908C4000DAD0E1209D61A80EDEB
:0108CD002208
:0408CE008A168B17E4
:1008D200120A11AA18EAD3940040297F1012094182
:1008E200AC16AD17CFCDCFCECCCE12083FEF540F02
:1008F200FEC3940AEE5004243080022437FF12090A
:04090200EA1A80D19C
:0109060022CE
:040907008A1B8B1CA0
:10090B00120A11AA1DEAD394004028EA24FFFDE441
:10091B0034FFFC7F027E0012094BAC1BAD1CCFCD0C
:10092B00CFCECCCE12083FEF54012430FF1209EA90
:03093B001A80D24D
:01093E002296
:03000000020A4AA7
:0C0A4A00787FE4F6D8FD7581240209B71E
:10080000BB010CE58229F582E5833AF583E02250AD
:1008100006E92582F8E622BBFE06E92582F8E222F7
:0D082000E58229F582E5833AF583E4932211
:10082D00EF8DF0A4A8F0CF8CF0A428CE8DF0A42EDF
:02083D00FE2299
:10083F00BC000BBE0029EF8DF084FFADF022E4CC9D
:10084F00F875F008EF2FFFEE33FEEC33FCEE9DEC66
:10085F00984005FCEE9DFE0FD5F0E9E4CEFD22EDAC
:10086F00F8F5F0EE8420D21CFEADF075F008EF2FF6
:10087F00FFED33FD4007985006D5F0F222C398FDE7
:05088F000FD5F0EA2284
:00000001FF
