:1008B50075A0FE1208D51208008F0AE50A60F7B484
:1008C50001F4050BE50BC3940240EBE4F50B80E660
:03000B0002086187
:0B086100C0E0C0D075D000C000C00790
:10086C00758A18758CFC0509E50970020508C39496
:10087C00F4E50894014029750800750900E50B7032
:10088C000DAFA07801EF08800103D8FDF5A0E50BB2
:10089C00B4010DAFA07801EF08800123D8FDF5A0BD
:0908AC00D007D000D0D0D0E0321A
:1008D5005389F0438901758A18758CFCC28DD28CB9
:0D08E500758CFC758A17D2A9D2AFC2B9225A
:1008F200EF1FAC0670011E4C600A7D027CEFDCFE2D
:04090200DDFC80ECAC
:0109060022CE
:10080000E4F50C20B1137F14FE1208F230B1FD7F25
:10081000147E001208F2750C0120B0147F147E00C3
:100820001208F230B0FD7F147E001208F2750C023F
:1008300020B2147F147E001208F230B2FD7F147EC5
:10084000001208F2750C0320B3147F147E00120806
:10085000F230B3FD7F147E001208F2750C04AF0C69
:010860002275
:03000000020907EB
:0C090700787FE4F6D8FD75810C0208B57D
:00000001FF
