:0308F600010800F6
:0408DD007F147E0006
:1008E100EF1FAC0670011E4C600A7D027CEFDCFE3E
:0408F100DDFC80ECBE
:0108F50022E0
:10088C0020B1251208DD30B1FD1208DDE508C39456
:10089C00084003E4F508AF087401A807088002C3F8
:1008AC0033D8FCF4F5A0050820B0D51208DD30B023
:1008BC00FD1208DDE508700575080880021508AF03
:1008CC00087401A807088002C333D8FCF4F5A08093
:0108DC00AF6C
:03000000020800F3
:0C080000787FE4F6D8FD758108020847F7
:10080C0002088CE493A3F8E493A34003F68001F26E
:10081C0008DFF48029E493A3F85407240CC8C333ED
:10082C00C4540F4420C8834004F456800146F6DFBC
:10083C00E4800B01020408102040809008F6E47E4E
:10084C00019360BCA3FF543F30E509541FFEE493B1
:10085C00A360010ECF54C025E060A840B8E493A378
:10086C00FAE493A3F8E493A3C8C582C8CAC583CAA3
:10087C00F0A3C8C582C8CAC583CADFE9DEE780BE5B
:0108F90000FE
:00000001FF
