:100C550050617373776F72643A004F4B20004552B1
:020C650052003B
:10098900120C417BFF7A0C79557D017F01120BB85E
:100999001208008F1CE51C60F7D3940A5041C3E587
:1009A900199404E51894005028AE1AAF1B7C007DF9
:1009B9000A120A738E1A8F1BE51C75F00A84E5F07A
:1009C900251BF51BE4351AF51A0519E519700205F9
:1009D90018750C04AB1BAA1A7D017F02120BF9E5ED
:1009E9001C640B7036E51BB4D60DE51AB41A087BE6
:1009F900FF7A0C795F80067BFF7A0C79637D0E7F25
:100A090001120BB8E4F51AF51BF518F519750C0464
:100A1900AB1BAA1A7D017F02120BF9E51C640C605D
:100A290003020999F51AF51BF518F519750C04ABAC
:0D0A39001BAA1A7D017F02120BF902099918
:100C2C00EF1FAC0670011E4C600A7D027CEFDCFEEF
:040C3C00DDFC80EC6F
:010C40002291
:060C6700C2A58F80D2A798
:080C6D007F027EEFDEFEDFFCDA
:010C7500225C
:0A0C8200C2A6120C67C2A7020C6D97
:100BDB00CFCDCFCECCCE120A857C007D0A120A85F2
:040BEB00ED2430FFC6
:0A0BEF00D2A6120C67C2A7020C6D1B
:100C1600AE07BE0104ED148006BE0209ED243F4472
:060C260080FF120C822287
:100C41007F38120C827F0C120C827F06120C827F7D
:040C510001020C820E
:0A0C8C00AC03120C16AF04020BEFCC
:060BB8008B088A09890A7E
:100BBE00120C16E4FDAB08AA09A90A8D82758300F2
:0C0BCE00120A46FF6006120BEF0D80E9D2
:010BDA0022F8
:0C0B85007F0AEA24FFFDE434FFFC7E0040
:080B91008E0D8F0E8C0F8D10EC
:100B99007F017E00E4FBEBC39510E50F6480F874D8
:0E0BA9008098500AAC0DAD0E120A730B80E856
:010BB700221B
:040BF9008A0A8B0BCE
:100BFD00120C16AA0CEAD39400400D120B85AC0A08
:080C0D00AD0B120BDB1A80EDA8
:010C150022BC
:100ADA00120C16C3EA64809480400B7F2B120BEF32
:100AEA008A168B17800E7F2D120BEFC3E49BF51726
:100AFA00E49AF516AA15EAD39400400D120B85ACB8
:090B0A0016AD17120BDB1A80ED89
:010B130022BF
:040B14008A1F8B2089
:100B1800120C16AA21EAD3940040297F10120B87E1
:100B2800AC1FAD20CFCDCFCECCCE120A85EF540F5F
:100B3800FEC3940AEE5004243080022437FF120BBF
:040B4800EF1A80D14F
:010B4C002286
:040B4D008A248B2546
:100B5100120C16AA26EAD394004028EA24FFFDE4E9
:100B610034FFFC7F027E00120B91AC24AD25CFCD6A
:100B7100CFCECCCE120A85EF54012430FF120BEFF9
:030B81001A80D205
:010B8400224E
:10080000E4F5087590FFC2932097137F14FE120C35
:100810002C3097FD7F147E00120C2C750801209659
:10082000147F147E00120C2C3096FD7F147E001273
:100830000C2C7508052095147F147E00120C2C30AA
:1008400095FD7F147E00120C2C7508092094147FEE
:10085000147E00120C2C3094FD7F147E00120C2CA0
:1008600075080D7590FFC2922097147F147E0012B8
:100870000C2C3097FD7F147E00120C2C7508022082
:1008800096147F147E00120C2C3096FD7F147E008F
:10089000120C2C7508062095147F147E00120C2C67
:1008A0003095FD7F147E00120C2C75080A209414DC
:1008B0007F147E00120C2C3094FD7F147E00120CED
:1008C0002C75080E7590FFC2912097147F147E003E
:1008D000120C2C3097FD7F147E00120C2C7508032F
:1008E0002096147F147E00120C2C3096FD7F147E0F
:1008F00000120C2C7508072095147F147E00120C32
:100900002C3095FD7F147E00120C2C75080B209462
:10091000147F147E00120C2C3094FD7F147E001284
:100920000C2C75080F7590FFC2902097147F147ED1
:1009300000120C2C3097FD7F147E00120C2C7508D1
:10094000042096147F147E00120C2C3096FD7F1428
:100950007E00120C2C7508082095147F147E00125E
:100960000C2C3095FD7F147E00120C2C75080C2089
:1009700094147F147E00120C2C3094FD7F147E00A2
:08098000120C2C750810AF08E1
:01098800224C
:03000000020C7679
:0C0C7600787FE4F6D8FD7581260209891C
:100A4600BB010CE58229F582E5833AF583E0225065
:100A560006E92582F8E622BBFE06E92582F8E222AF
:0D0A6600E58229F582E5833AF583E49322C9
:100A7300EF8DF0A4A8F0CF8CF0A428CE8DF0A42E97
:020A8300FE2251
:100A8500BC000BBE0029EF8DF084FFADF022E4CC55
:100A9500F875F008EF2FFFEE33FEEC33FCEE9DEC1E
:100AA500984005FCEE9DFE0FD5F0E9E4CEFD22ED64
:100AB500F8F5F0EE8420D21CFEADF075F008EF2FAE
:100AC500FFED33FD4007985006D5F0F222C398FD9F
:050AD5000FD5F0EA223C
:00000001FF
