:0E0AF400436C6F636B3A0020203A20203A00DA
:10090100120AD1120A897BFF7A0A79F47D017F01EB
:10091100120A2B7BFF7A0A79FB7D017F02120A2BD7
:10092100750C02AB16AA157D017F02120A6C750CBB
:1009310002AB18AA177D047F02120A6C750C02AB78
:0C09410014AA137D077F02120A6C80D4F8
:03000B0002089454
:04089400C0E0C0D030
:10089800758A18758CFC0512E51270020511C3944F
:1008A800E8E5119403404D751100751200B2A005DA
:1008B80014E51470020513D3943CE51394004034F6
:1008C8007513007514000518E51870020517D39400
:1008D8003CE5179400401D7517007518000516E5CE
:1008E8001670020515D39418E51594004006751581
:0408F8000075160071
:0508FC00D0D0D0E03275
:100ABC00EF1FAC0670011E4C600A7D027CEFDCFE61
:040ACC00DDFC80ECE1
:010AD0002203
:060AE500C2A58F80D2A71C
:080AEB007F027EEFDEFEDFFC5E
:010AF30022E0
:0A0B0E00C2A6120AE5C2A7020AEB14
:100A4E00CFCDCFCECCCE12083F7C007D0A12083F10
:040A5E00ED2430FF54
:0A0A6200D2A6120AE5C2A7020AEBB1
:100AA600AE07BE0104ED148006BE0209ED243F44E4
:060AB60080FF120B0E226E
:100AD1007F38120B0E7F0C120B0E7F06120B0E7F4E
:040AE10001020B0EF5
:0A0B1800AC03120AA6AF04020A6241
:060A2B008B088A09890A0C
:100A3100120AA6E4FDAB08AA09A90A8D82758300F2
:0C0A4100120800FF6006120A620D80E936
:010A4D002286
:0C09F8007F0AEA24FFFDE434FFFC7E00CF
:080A04008E0D8F0E8C0F8D107A
:100A0C007F017E00E4FBEBC39510E50F6480F87466
:0E0A1C008098500AAC0DAD0E12082D0B80E82C
:010A2A0022A9
:040A6C008A0A8B0B5C
:100A7000120AA6AA0CEAD39400400D1209F8AC0A97
:080A8000AD0B120A4E1A80EDC5
:010A8800224B
:10094D00120AA6C3EA64809480400B7F2B120A62C0
:10095D008A1E8B1F800E7F2D120A62C3E49BF51F2A
:10096D00E49AF51EAA1DEAD39400400D1209F8ACC5
:09097D001EAD1F120A4E1A80ED96
:01098600224E
:040987008A228B2312
:10098B00120AA6AA24EAD3940040297F101209FA6E
:10099B00AC22AD23CFCDCFCECCCE12083FEF540F30
:1009AB00FEC3940AEE5004243080022437FF120A4F
:0409BB00621A80D16B
:0109BF002215
:0409C0008A278B28CF
:1009C400120AA6AA29EAD394004028EA24FFFDE4E7
:1009D40034FFFC7F027E00120A04AC27AD28CFCD81
:1009E400CFCECCCE12083FEF54012430FF120A625E
:0309F4001A80D294
:0109F70022DD
:100A89005389F0438901758A18758CFCC28DD28C03
:0D0A9900758CFC758A17D2A9D2AFC2B922A4
:03000000020B02EE
:0C0B0200787FE4F6D8FD75812902090116
:10080000BB010CE58229F582E5833AF583E02250AD
:1008100006E92582F8E622BBFE06E92582F8E222F7
:0D082000E58229F582E5833AF583E4932211
:10082D00EF8DF0A4A8F0CF8CF0A428CE8DF0A42EDF
:02083D00FE2299
:10083F00BC000BBE0029EF8DF084FFADF022E4CC9D
:10084F00F875F008EF2FFFEE33FEEC33FCEE9DEC66
:10085F00984005FCEE9DFE0FD5F0E9E4CEFD22EDAC
:10086F00F8F5F0EE8420D21CFEADF075F008EF2FF6
:10087F00FFED33FD4007985006D5F0F222C398FDE7
:05088F000FD5F0EA2284
:00000001FF
